:020000040800F2
:10000000E8460020CD0100080D150008B1020008E7
:1000100009150008C7030008E91A000800000000DD
:10002000000000000000000000000000A51500080E
:10003000CB030008000000003B020008191700086D
:10004000E7010008E7010008E7010008E7010008F0
:10005000E7010008E7010008E7010008E7010008E0
:10006000E7010008E7010008E7010008E7010008D0
:10007000E7010008E7010008E7010008E7010008C0
:10008000E7010008E7010008E7010008E7010008B0
:10009000E7010008E7010008E7010008E7010008A0
:1000A000E7010008E7010008E7010008E701000890
:1000B000E7010008E7010008E7010008E701000880
:1000C000E7010008E7010008E7010008E701000870
:1000D000E7010008D91A0008E7010008E701000855
:1000E000E7010008E7010008E7010008E701000850
:1000F000E7010008E7010008E7010008E701000840
:10010000E7010008E7010008E7010008E70100082F
:10011000E7010008E7010008E7010008E70100081F
:10012000E7010008E7010008E7010008E70100080F
:1001300000F002F800F03AF80AA090E8000C8244BF
:100140008344AAF10107DA4501D100F02FF8AFF29C
:10015000090EBAE80F0013F0010F18BFFB1A43F0A5
:100160000103184784380000A4380000103A24BF67
:1001700078C878C1FAD8520724BF30C830C144BF0C
:1001800004680C607047000000230024002500264E
:10019000103A28BF78C1FBD8520728BF30C148BFEA
:1001A0000B6070471FB51FBD10B510BD00F0D4F82F
:1001B0001146FFF7F7FF00F001F900F0F2F803B481
:1001C000FFF7F2FF03BC01F044FD0000094880473F
:1001D00009480047FEE7FEE7FEE7FEE7FEE7FEE729
:1001E000FEE7FEE7FEE7FEE704480549054A064B41
:1001F000704700001918000831010008E84000208D
:10020000E8460020E8420020E8420020EFF310809A
:1002100072B6704780F310887047324A1368012B1A
:1002200004D04FF0010313602F4A10602F4A116071
:100230002F484FF0805101607047EFF3108272B683
:100240002848016891B14FF000010160264801681B
:1002500029B1EFF3098121E9F00F0068016023491A
:1002600009680968B1E8F00F81F3098882F3108802
:100270004EF0040E70471D4908601B494FF0000006
:10028000086018494FF0010008601A481A49D0F870
:10029000002041EA0201016015484FF080510160E1
:1002A00016480068006880F3088861B662B6704737
:1002B0001EF0040F0CBFEFF30880EFF3098020E974
:1002C000F00F40F804ED1EF0040F0CBF80F3088817
:1002D00080F3098800B501F05DFE5DF804EB4EF097
:1002E000040E7047340000202C0000203000002055
:1002F00004ED00E020ED00E00000FFFF08ED00E06D
:1003000070474FF0000200B51346944696462039D8
:1003100022BFA0E80C50A0E80C50B1F12001BFF4BE
:10032000F7AF090728BFA0E80C5048BF0CC05DF824
:1003300004EB890028BF40F8042B08BF704748BF72
:1003400020F8022B11F0804F18BF00F8012B7047E6
:100350007047704770477047754600F02BF8AE46FF
:1003600005006946534620F00700854618B020B5C1
:10037000FFF73AFFBDE820404FF000064FF00007BE
:100380004FF000084FF0000B21F00701AC46ACE83D
:10039000C009ACE8C009ACE8C009ACE8C0098D46AA
:1003A000704710B50446AFF300802046BDE810400A
:1003B000FFF705BF004870478840002010B502F0E5
:1003C00025FD002010BD00BFFEE7704770B5044654
:1003D000002594F82100022803D00420A063012501
:1003E000C1E02068006820F00E00216808602068E5
:1003F000006820F00100216808605C49206888429C
:1004000052D95A4978392068884201D1012047E001
:10041000564964392068884201D1102040E0534990
:1004200050392068884201D1801539E04F493C3964
:100430002068884201D1801432E04C492839206874
:10044000884202D14FF480302AE0484914392068AC
:10045000884202D14FF4801022E04449206888424B
:1004600001D140041CE042492068884201D10120AA
:1004700016E03F4914312068884201D110200FE076
:100480003B4928312068884201D1801508E038496D
:100490003C312068884201D1801401E04FF4803063
:1004A0003349091F086051E0304978392068884293
:1004B00001D1012047E02D4964392068884201D1EB
:1004C000102040E0294950392068884201D1801528
:1004D00039E026493C392068884201D1801432E055
:1004E000224928392068884202D14FF480302AE01E
:1004F0001E4914392068884202D14FF4801022E04E
:100500001A492068884201D140041CE0184920683B
:10051000884201D1012016E0154914312068884233
:1005200001D110200FE0124928312068884201D102
:10053000801508E00E493C312068884201D18014C2
:1005400001E04FF48030094980394860012084F887
:10055000210000BF002084F8200000BF606B10B1B4
:100560002046616B8847284670BD0000800002402D
:10057000080402402DE9F847024600239C467BE12F
:100580004FF0010808FA03F4D1F8008008EA0400EB
:10059000A0427DD1DFF8F4A2D1F80480A8EB0A09CB
:1005A000D0453AD014DCB8F1030F50D009DCB8F1D3
:1005B000000F31D0B8F1010F1CD0B8F1020F49D1B2
:1005C00020E0B8F1110F18D0B8F1120F42D11EE09F
:1005D000B9F5881F25D006DCB9F5803F20D0B9F5E4
:1005E000801F37D11AE0B9F5001F18D0B9F5041FE4
:1005F00030D117E0D1F80CC02DE0D1F80C8008F113
:10060000040C28E0D1F80C8008F1080C23E0D1F8A4
:100610000C8008F10C0C1EE000BF00BF00BF00BF43
:1006200000BF00BFD1F80880B8F1000F02D14FF031
:10063000040C0BE0D1F80880B8F1010F03D14FF0A2
:10064000080C146102E04FF0080C546103E04FF015
:10065000000C00E000BF00BFFF2801D8904601E079
:1006600002F104084646FF2802D84FEA830803E057
:10067000A3F108084FEA88084746D6F800804FF0F3
:100680000F0909FA07F928EA09080CFA07F900E046
:100690007AE048EA0908C6F80080D1F8048008F03A
:1006A0008058B8F1805F6FD100BFDFF8E481D8F8DF
:1006B000188048F00108DFF8D891C9F81880C846BA
:1006C000D8F8188008F00108CDF8008000BF00BFFE
:1006D0004FEAB9384FEA930958F829504FEA83781E
:1006E0004FEA18794FF00F0808FA09F825EA0805CB
:1006F000DFF8A081424502D14FF0000824E0DFF886
:100700009881424502D14FF001081DE0DFF88C814D
:10071000424502D14FF0020816E0DFF884814245DD
:1007200002D14FF003080FE0DFF87881424502D193
:100730004FF0040808E0DFF87081424502D14FF025
:10074000050801E04FF006084FEA83794FEA19796E
:1007500008FA09F848EA0505DFF850814FEA9309DD
:1007600048F82950D1F8048008F48038B8F5803F63
:100770000BD1DFF83C81D8F8008048EA0008DFF8A8
:100780003091C9F800800AE075E0DFF82481D8F8DC
:10079000008028EA0008DFF81891C9F80080D1F835
:1007A000048008F40038B8F5003F0ED1DFF800816E
:1007B00008F10408D8F8008048EA0008DFF8F09053
:1007C00009F10409C9F800800DE0DFF8E48008F1C0
:1007D0000408D8F8008028EA0008DFF8D49009F16E
:1007E0000409C9F80080D1F8048008F48018B8F52D
:1007F000801F0ED1DFF8B88008F10808D8F8008013
:1008000048EA0008DFF8A89009F10809C9F8008053
:100810000DE0DFF89C8008F10808D8F8008028EA8D
:100820000008DFF88C9009F10809C9F80080D1F8B8
:10083000048008F40018B8F5001F0ED1DFF87080AE
:1008400008F10C08D8F8008048EA0008DFF860904A
:1008500009F10C09C9F800800DE0DFF8548008F1B7
:100860000C08D8F8008028EA0008DFF8449009F165
:100870000C09C9F800805B1CD1F8008028FA03F845
:10088000B8F1000F7FF47CAEBDE8F88700001110CE
:100890000010024000080140000C0140001001401F
:1008A0000014014000180140001C014008000140F4
:1008B0000004014010B5C26821EA020302EA010403
:1008C00043EA0443036110BD01480068704700001B
:1008D0000800002010B50848006840F010000649E4
:1008E0000860052000F080F80F2000F007F800F005
:1008F0002BF8002010BD00000020024070B5044617
:100900000E4800784FF47A71B1FBF0F00C49096899
:10091000B1FBF0F5284600F0E3FB08B1012070BD03
:10092000102C07D200222146501E00F01EF8054868
:10093000046001E00120F2E70020F0E71000002051
:10094000040000200C0000207047014608460028E3
:1009500009DB00F01F0301229A4043099B0003F1C9
:10096000E023C3F8002100BF70472DE9F05F804607
:100970000D461646002701F0B9F8074639462A46C3
:10098000334601F00700C0F1070ABAF1040F02D99B
:100990004FF0040A01E0C0F1070AD14600F1040A51
:1009A000BAF1070F02D24FF0000A01E0A0F1030AEA
:1009B000D4464FF0010A0AFA09FAAAF1010A0AEA32
:1009C000020A0AFA0CFA4FF0010B0BFA0CFBABF11E
:1009D000010B0BEA030B4AEA0B042146404601F0E7
:1009E0008DF8BDE8F09F000000BF00F00702064B45
:1009F00019684FF6FF031940044B0B4343EA0221E9
:100A0000014B196000BF70470CED00E00000FA05D3
:100A100070B504460D460CB9012070BD5A480068F7
:100A200000F00700A8420ED25748006820F00700E7
:100A30002843554908600846006800F00700A842AE
:100A400001D00120E9E7207800F0020002281DD142
:100A5000207800F00400042805D14C48406840F498
:100A6000E0604A494860207800F00800082805D175
:100A70004648406840F460504449486043484068F4
:100A800020F0F000A168084340494860207800F059
:100A9000010078B36068012806D13C48006800F482
:100AA000003090B90120B8E76068022806D13748C5
:100AB000006800F0007040B90120AEE733480068DC
:100AC00000F0020008B90120A7E73048406820F094
:100AD0000300616808432D494860FFF7F5FE0646AC
:100AE00009E0FFF7F1FE801B41F28831884202D90C
:100AF000032092E707E02548406800F00C00616899
:100B0000B0EB810FEDD12048006800F00700A8424B
:100B10000ED91D48006820F0070028431A490860D4
:100B20000846006800F00700A84201D0012074E7E1
:100B3000207800F00400042807D11448406820F40D
:100B4000E060E168084311494860207800F008003F
:100B5000082808D10D48406820F46050216940EA17
:100B6000C1000A49486000F03FF808494968C1F3EC
:100B70000311074A515CC8400649086006480068EE
:100B8000FFF7BCFE002048E70020024000100240B2
:100B90009E380008040000200C0000200148006876
:100BA000704700000400002000B5FFF7F7FF04497C
:100BB0004968C1F30221034A515CC84000BD0000EE
:100BC00000100240AE38000800B5FFF7E7FF044907
:100BD0004968C1F3C221034A515CC84000BD00000E
:100BE00000100240AE380008F0B585B00FF26C0C72
:100BF0009CE8E01001A8A0E8E0101CA52D68009575
:100C000000210022002300240020194D696801F012
:100C10000C05F5B1042D02D0082D19D101E01548BD
:100C200019E001ADC1F38346AC5D01F4803555B1E7
:100C30000F4D6D68C5F340451DF805200D4D65430A
:100C4000B5FBF2F302E00C4D04FB05F3184602E09D
:100C500000BF084800BF00BF05B0F0BD0203040597
:100C6000060708090A0B0C0D0E0F101001020000F8
:100C70000010024000127A0000093D00F8B5044659
:100C80000CB90120F8BD207800F00100002878D0D0
:100C9000F848406800F00C0004280CD0F548406883
:100CA00000F00C00082811D1F248406800F48030B0
:100CB000B0F5803F0AD1EF48006800F4003000280A
:100CC0005FD0606800285CD10120DBE700BF60686E
:100CD000B0F5803F06D1E748006840F48030E54930
:100CE000086028E0606858B9E248006820F4803065
:100CF000E04908600846006820F4802008601AE097
:100D00006068B0F5A02F0BD1DA48006840F480206D
:100D1000D84908600846006840F4803008600AE05E
:100D2000D448006820F48030D24908600846006842
:100D300020F48020086000BF606888B1FFF7C4FD20
:100D4000054606E0FFF7C0FD401B642801D90320DB
:100D500098E7C848006800F400300028F2D010E09E
:100D6000FFF7B2FD054606E0FFF7AEFD401B642825
:100D700001D9032086E7BF48006800F4003000284E
:100D8000F2D1207800F00200022857D1B94840681B
:100D900000F00C0050B1B748406800F00C00082883
:100DA00018D1B448406800F4803098B9B148006860
:100DB00000F0020020B12069012801D0012061E784
:100DC000AC48006820F0F800616940EAC100A94918
:100DD000086033E02069E8B10120A7490860FFF707
:100DE00073FD054606E0FFF76FFD401B022801D9A1
:100DF000032047E79F48006800F002000028F2D077
:100E00009C48006820F0F800616940EAC1009949F7
:100E1000086013E0002098490860FFF755FD05467B
:100E200006E0FFF751FD401B022801D9032029E706
:100E30009048006800F002000028F2D1207800F00D
:100E4000080008282DD1A069B8B101208B4908609D
:100E5000FFF73AFD054606E0FFF736FD401B022886
:100E600001D903200EE78348406A00F00200002801
:100E7000F2D0012000F082FB13E000207F490860DF
:100E8000FFF722FD054606E0FFF71EFD401B022886
:100E900001D90320F6E67748406A00F002000028F6
:100EA000F2D1207800F00400042873D100277148A3
:100EB000C06900F0805070B900BF6E48C06940F052
:100EC00080506C49C8610846C06900F080500090AD
:100ED00000BF00BF01276A48006800F48070B0B905
:100EE0006748006840F4807065490860FFF7ECFCD3
:100EF000054606E0FFF7E8FC401B642801D9032003
:100F0000C0E65F48006800F480700028F2D000BF9F
:100F1000E068012806D15748006A40F001005549B1
:100F2000086227E0E06858B95248006A20F00100E2
:100F3000504908620846006A20F00400086219E07F
:100F4000E06805280BD14B48006A40F0040049498D
:100F500008620846006A40F0010008620AE045485D
:100F6000006A20F00100434908620846006A20F048
:100F70000400086200BFE068A0B1FFF7A5FC0546C9
:100F800009E0FFF7A1FC401B41F28831884202D9F9
:100F9000032077E622E03748006A00F002000028CC
:100FA000EFD012E0FFF790FC054608E0FFF78CFC5D
:100FB000401B41F28831884201D9032062E62D4866
:100FC000006A00F002000028F0D1012F05D1294865
:100FD000C06920F080502749C86100BFE069C8B3EC
:100FE0002448406800F00C00082860D0E06902281E
:100FF00048D1002020490866FFF766FC054606E058
:10100000FFF762FC401B022801D903203AE6194889
:10101000006800F000700028F2D1206AB0F5803F2F
:1010200007D11448406820F40030A16808431149F2
:101030004860D4E9080108430E49496821F4741155
:1010400008430C49486001200B490866FFF73CFC47
:10105000054607E03DE0FFF737FC401B022801D9B9
:1010600003200FE60348006800F000700028F2D06B
:101070002FE0000000100240000042428004424283
:1010800000700040002014490866FFF71DFC05466B
:1010900006E0FFF719FC401B022801D90320F1E507
:1010A0000E48006800F000700028F2D111E0E069FD
:1010B000012800D1E6E50948466806F48031206A37
:1010C000814204D106F47011606A814201D001208E
:1010D000D8E50020D6E500000000424200100240A2
:1010E00070B504462546681EB0F1807F01D301200B
:1010F0000FE0681E4FF0E02148610F214FF0FF30F4
:1011000000F0FCFC00204FF0E0218861072008611E
:10111000002070BD704700002DE9F04704462068AC
:1011200005682068C668206847694FF00008C14616
:1011300005F00F08B8F1000F0AD105F0200038B112
:1011400006F0200020B1204600F091FBBDE8F087BA
:10115000B8F1000F71D007F0010018B906F49070D3
:1011600000286AD005F0010030B106F4807018B193
:10117000E06B40F00100E06305F0040030B107F0DF
:10118000010018B1E06B40F00200E06305F00200DE
:1011900030B107F0010018B1E06B40F00400E063EB
:1011A00005F0080048B106F0200010B907F0010072
:1011B00018B1E06B40F00800E063E06B68B305F045
:1011C000200028B106F0200010B1204600F04FFBAF
:1011D00020684069C0F38019E06B00F0080010B986
:1011E000B9F1000F22D0204600F021FB20684069B1
:1011F00000F04000B0B12068406920F04000216854
:101200004861606B50B11848616B4863606BFFF7D1
:10121000DDF810B1606B416B88470CE02046FFF7AA
:1012200079FF08E02046FFF775FF04E02046FFF74E
:1012300071FF0020E06389E7FFE705F0800030B12F
:1012400006F0800018B1204600F0E0FB7EE705F0D4
:10125000400030B106F0400018B1204600F0F7FA27
:1012600074E700BF72E700001B18000810B50446C1
:101270000CB9012010BDA06900B100E000BF94F8D6
:10128000390028B9002084F83800204600F028F8FA
:10129000242084F839002068C06820F400502168B8
:1012A000C860204600F034FB2068006920F49040BC
:1012B000216808612068406920F02A00216848619F
:1012C0002068C06840F400502168C8600020E063D6
:1012D000202084F8390084F83A000020CAE7000092
:1012E00010B586B004462849206888424AD100BF1C
:1012F00000BF2648806940F0040024498861084600
:10130000806900F00400019000BF00BF00BF00BF73
:1013100000BF0846806940F0040088610846806983
:1013200000F00400019000BF00BF00BF00BF00BF7D
:101330000846806940F4804088610846806900F46E
:101340008040019000BF00BF00BF481502900220FE
:101350000390012004900320059002A90C48FFF798
:1013600009F94FF4806002900020039002A9084818
:10137000FFF700F92520FFF7E8FA032211462520A0
:10138000FFF7F3FA06B010BD00380140001002402C
:101390000008014010B5034693F83A0020282FD1E9
:1013A00001B10AB9012010BD00BF93F8380001282F
:1013B00001D10220F7E7012083F8380000BF9962CD
:1013C0009A85DA850020D863222083F83A0000BF8E
:1013D000002083F8380000BF1868C06840F48070AF
:1013E0001C68E0601868406940F001001C6860619A
:1013F0001868C06840F020001C68E0600020D2E758
:101400000220D0E710B5044606492068884207D17B
:101410000120054908700A2204490548FFF7BAFF70
:1014200010BD00000038014000000020C000002076
:10143000940100202DE9F84F04460E4617469946C0
:101440004FF0000A94F8390020285AD106B117B994
:101450000120BDE8F88F00BF94F83800012801D1C1
:101460000220F6E7012084F8380000BF0020E06386
:10147000212084F83900FFF727FA8246A784E78401
:10148000A068B0F5805F04D1206910B90025B0468E
:1014900002E035464FF0000800BF002084F8380015
:1014A00000BF1BE05346002280212046CDF800906B
:1014B00000F0DCFA08B10320CBE745B9B8F800002A
:1014C000C0F308002168486008F1020803E02878AA
:1014D000216848606D1CE08C401EE084E08C002890
:1014E000E0D15346002240212046CDF8009000F084
:1014F000BDFA08B10320ACE7202084F839000020B1
:10150000A7E70220A5E7704700BFFEE7704700008D
:10151000002003498860C860086148617047000086
:10152000D401002038B512480078AA281ED11048EE
:10153000407A55281AD10E4840788DF800000C48A2
:1015400080788DF801000A48C0788DF802000848BC
:1015500000798DF80300009C22460649064800F0F9
:1015600045F80546284600F01FF800BF38BD0000CA
:10157000C00000200000C040D401002008B5084988
:101580000968C9084FF47A72B1FBF2F14143009146
:1015900000BF00BF00994A1E00920029F9D108BD82
:1015A00004000020704700003EB504460294BB20B2
:1015B0008DF800009DF808008DF801009DF80900E5
:1015C0008DF802009DF80A008DF803009DF80B00CD
:1015D0008DF804000D208DF805000A2306226946C7
:1015E0000148FFF727FF3EBD940100202DE9F04F91
:1015F00089B0044689461546C4F80090656049469E
:10160000284602F0D7F8A0603A48A168006801F0C7
:10161000D3FF07903849A06802F09AF819D24FF02A
:101620008141A06801F094FF13D2A168206901F004
:1016300021FF20613149206902F08AF801D22F4848
:1016400020612F49206901F083FF04D22C482061DA
:1016500001E0002020612B482169006801F0ACFF07
:101660000690D4E9020102F0A5F80590059801F072
:10167000D5FE07464FF03332234B01F0E7FCCDE9AE
:101680000201A06901F0CAFE07464FF066321F4B07
:1016900001F0DCFCCDE90001DDE9022301F02EFCC4
:1016A000824601F0F9FBA0611948A169006801F0C8
:1016B00083FF0490DDE9061001F0DCFE0746049983
:1016C00001F0D8FE06461349304602F041F802D236
:1016D0001048606108E00021304601F039FF02D275
:1016E0000020606100E06661A068E060606909B0A8
:1016F000BDE8F08F20000020000080C000007A4587
:1017000000007AC5240000203333D33F6666E63FED
:10171000280000200000484410B500F09BFE10BDDA
:1017200000B58FB0282105A8FEF7EBFD142168460F
:10173000FEF7E7FD012005900004069002200C90C2
:10174000C1030D914FF4E0110E9105A8FFF796FA31
:101750000F20009002200190002002904FF4806042
:1017600003900020049002216846FFF751F90FB062
:1017700000BD000010B5002100200022214B5B6855
:1017800003F00C0121B1042906D0082928D107E073
:101790001D4B1E4C236027E01B4B1C4C236023E099
:1017A000184B5B6803F47010164B5B6803F48032CF
:1017B000022303EB904022B9154B4343134C2360A3
:1017C0000DE0104B5B6803F4003323B1104B43432F
:1017D0000E4C236003E00C4B43430C4C236003E0AE
:1017E000094B0A4C236000BF00BF064B5B68C3F384
:1017F0000313084CE15C054B1B68CB40034C236092
:1018000010BD00000010024000127A000400002009
:1018100000093D009E380008704770B505466C6AA7
:101820000020E085E0842046FFF774FC70BD01686D
:10183000C96821F490710268D1600168496921F09A
:10184000010102685161202180F83A10704710B5FB
:1018500004462068C06820F040002168C86020204D
:1018600084F839002046FFF74EFE002010BD70B509
:10187000044694F83A00222847D1A068B0F5805F6A
:101880000CD1206950B90025A66A20684068C0F3D1
:1018900008003080A06A801CA06215E0A56A0026BE
:1018A000A068B0F5805F03D0A06828B9206918B996
:1018B00020684068287004E02068406800F07F00DD
:1018C0002870A06A401CA062E08D401E80B2E085B6
:1018D000C8B92068C06820F020002168C86020686E
:1018E000C06820F480702168C8602068406920F0DA
:1018F000010021684861202084F83A002046FFF763
:1019000081FD002070BD0020FCE70220FAE7000006
:1019100070B504462168096921F44051E268114319
:10192000226811612269A1681143626941EA0205D6
:101930002168C96841F20C62914329432268D16051
:101940002168496921F44071A269114322685161FB
:101950002D4A2168914202D1FFF736F901E0FFF7E5
:1019600023F900EBC00101EB001162689200B1FBAA
:10197000F2F100EBC00202EB001263689B00B2FBC5
:10198000F3F26423B2FBF3F202EBC20303EB0212A5
:10199000A1EB8201322202EB01116422B1FBF2F1D0
:1019A00001F0F00100EBC00202EB001263689B0043
:1019B000B2FBF3F26423B2FBF3F201EB021200EB91
:1019C000C00101EB001163689B00B1FBF3F100EB78
:1019D000C00303EB00136668B600B3FBF6F364269E
:1019E000B3FBF6F303EBC30606EB0313A1EB830192
:1019F000322303EB01116423B1FBF3F101F00F017A
:101A000011442268916070BD00380140014691F890
:101A10003900212828D18868B0F5805F0BD108698A
:101A200048B90A6A1088C0F308000B685860086A51
:101A3000801C086205E00B6A581C086218780B6865
:101A40005860C88C401E80B2C88458B90868C06805
:101A500020F080000B68D8600868C06840F0400043
:101A60000B68D860002070470220FCE72DE9F041A8
:101A700004460D4617469846069E21E0701CF8B1B4
:101A80002EB1FEF721FFA0EB0800B04218D9206864
:101A9000C06820F4D0702168C8602068406920F0D8
:101AA000010021684861202084F8390084F83A0058
:101AB00000BF002084F8380000BF0320BDE8F0819B
:101AC000206800682840A84201D1012000E00020E1
:101AD000B842D3D00020F1E710B50248FFF71CFB55
:101AE00010BD00009401002000BFFEE7024800681E
:101AF000C0F30220704700000CED00E010B5002894
:101B000004DB0A07130E054A135406E00A07140EF5
:101B1000034A00F00F031B1FD45410BD00E400E083
:101B200018ED00E0014609B900207047C8B220B1A5
:101B3000C8B20E4A105C401CF7E701F47F4028B1A0
:101B40000A48C1F30722805C0930EEE701F47F0008
:101B500028B10648C1F30742805C1130E5E703482D
:101B600000EB116000781930DFE70000B63800089C
:101B70002DE9FC5F04468B4615461E46DDE90C9AAE
:101B8000DDE90E7804F114004060006000BF1C34F1
:101B90006560A660C4F80C90C4F810A02321D4E9B5
:101BA000030200F09FFBD4E9033C63441A1F0F4B70
:101BB000D4E9010100F000FA2060A77667760020E2
:101BC000E061C4F82080C4F82480606120766065FC
:101BD000A0651C3C00902346054A2146019004F173
:101BE000440001F066F80020BDE8FC9F4D28000885
:101BF0008D2A00082DE9F04704460E461746984600
:101C0000DDF8209084F80990607A20F0010060727D
:101C1000E66127620020A062C4F82480002506E067
:101C200004F1140101EBC50000F05BFA6D1C012DFD
:101C3000F6DBBDE8F08770B50546002406E005F147
:101C4000140101EBC40000F08DFA641C012CF6DBDA
:101C500070BD00BF704770B50446FEF7D7FA054661
:101C6000206F10B12046216F88472846FEF7D2FA30
:101C700070BD000086B000BF1048806940F00800C9
:101C80000E4988610846806900F00800019000BF95
:101C900000BF202002900120039000200490022029
:101CA000059002A90648FEF765FC06E020210448DD
:101CB000FEF700FE642000F061FEF7E7001002402E
:101CC000000C01407CB54FF4E13001F0CFF8FFF794
:101CD0001FFC05200F214FF400730022CDE90010F6
:101CE0000D490EA000F089FD054615B1284600F00B
:101CF00095FE05200A214FF400730022CDE9001063
:101D000009490AA000F079FD044614B1204600F00C
:101D100085FE00207CBD0000751C00086C65645FBA
:101D20007468726561640000392E00087561727410
:101D30005F7468726561640010B5044600F066F86F
:101D4000FFF7C0FF10BD000030B51A4C436824688F
:101D50001919884215D04B889BB9174B1B689942BB
:101D60000FD0164B1B688B4201D1144B18604B6887
:101D70004360104B1B68C31A0E4D4C682D682C44F1
:101D8000A3600C4C836824681A19824211D05388CE
:101D90007BB90A4B1B68834201D1084B1A60436828
:101DA0005360044B1B68D31A024D44682D682C44C1
:101DB000A36030BD44000020480000204C000020FB
:101DC0001CB514200A214FF480730022CDE90010C5
:101DD000044905A000F011FD0446204600F01EFE57
:101DE0001CBD0000391D00086D61696E0000000017
:101DF00010B5044C02E020688047241D024884424C
:101E0000F9D310BDDC390008E039000810B5044CE6
:101E100002E020688047241D02488442F9D310BDA7
:101E2000E0390008E439000810B5FEF7EFF9044680
:101E300004480088401C00B2024908802046FEF792
:101E4000E9F910BDA000002010B5FEF7DFF9044647
:101E50000C480088401E00B20A4908800846B0F9C4
:101E6000000000280ADC002008802046FEF7D2F996
:101E70000548006828B100F0F5FA02E02046FEF7B8
:101E8000C9F910BDA0000020A400002070B50546CF
:101E900005B970BD16480068854203D3154800682F
:101EA000854200D3F5E7A5F10C044FF0FF3112484D
:101EB00000F0A8FB002060804FF4F55020800F4810
:101EC0000068844201D20D480460094960680968CD
:101ED000611A401A0A490968081A09490860204627
:101EE000FFF732FF044800F064FB00BFD1E70000B9
:101EF0004400002048000020680300204C0000201F
:101F000054000020004870478804002000487047B3
:101F10008840002070B5FEF7DDFCFFF701FCFFF7FD
:101F200029FC194800684FF47A72B0FBF2F1481EA0
:101F3000B0F1807F00D31BE0481E4FF0E0225061DB
:101F400050170F22002804DB13071C0E0F4B1C54E4
:101F500006E013071D0E0E4B00F00F04241F1D5545
:101F600000BF00204FF0E02290610720106100BF09
:101F7000FFF73EFFFFF7CAFF0446FFF7C3FF054622
:101F8000214600F095FB70BD0400002000E400E055
:101F900018ED00E070B50446261D0648006838B10B
:101FA0002046044909688847054605B970BD00BF49
:101FB00000BFFEE738000020F0B504460D46164687
:101FC000301D20F0070040380146002203E00C4F8E
:101FD00041F82270521C102AF9D30D624FF0000C08
:101FE000C1F824C0C1F828C0C1F82CC0C1F830C065
:101FF0004B638C634FF0807CC1F83CC0F0BD0000A7
:10200000EFBEADDE10B5FEF701F9044604480078D6
:10201000401C034908702046FEF7FCF810BD000084
:102020004000002010B5FEF7F1F80446044800789F
:10203000401E034908702046FEF7ECF810BD000072
:102040004000002070B504462068A0F11405284621
:1020500000F09EFC002070BD2DE9F04105460C46C5
:102060009046204600F0F0FCB8F1000F03D0B8F124
:10207000010F23D105E004F11401284600F049F8CE
:102080001DE02E680FE0A6F1140794F8350097F8CC
:102090003510884206DA04F1140107F1140000F04B
:1020A00038F802E03668AE42EDD100BFAE4204D14E
:1020B00004F11401284600F02CF800E000BF00BF36
:1020C0000020BDE8F08110B5044604F1140000F0D2
:1020D00002F8002010BD4060006070474060006062
:1020E00070474060006070470268516002680A6093
:1020F0000160486070470268516002680A600160D0
:10210000486070470268516002680A600160486078
:1021100070474268116042684A60416008607047D9
:1021200001460868884201D1012070470020FCE781
:1021300001460868884201D1012070470020FCE771
:10214000D0E900215160D0E90012116040600060C8
:102150007047D0E900215160D0E900121160406061
:1021600000607047D0E900215160D0E90012116091
:1021700040600060704700002DE9F041054615B948
:102180000020BDE8F081E81C20F003054E480068FF
:10219000854201D90020F4E70C2D00D20C254FF028
:1021A000FF314A4800F02EFA494800684949096859
:1021B000461A7EE04748006884196088002874D178
:1021C00006F10C006168081AA8426ED306F10C00F3
:1021D0006168091A05F11800814230D306F10C003C
:1021E00000EB05083B48006800EB08074FF4F5508A
:1021F00038800020788060687860BE60C4F8048011
:10220000012060803048796800680C30814205D038
:102210003049786809680844C0F808802E48016889
:1022200005F10C0008442C4908602C480068096836
:10223000884219D2284800682849086014E0012023
:102240006080244960680968611A401A2249096857
:10225000084421490860214800680968884203D27F
:102260001D4800681D4908604FF4F550208018484B
:102270000068844212D107E015480068406815499B
:10228000096808441249086011480068408828B16C
:102290000F480068124909688842EDD10B4800F0E8
:1022A00088F904F10C006CE7FFE70A480068304445
:1022B000466805480068401BB0423FF67BAF0348C4
:1022C00000F077F900205CE7500000206803002050
:1022D0004C00002044000020540000205800002042
:1022E00048000020F0B50C460546E6B2042A15D396
:1022F00000F0030797B9014646EA062343EA034381
:1023000004E008C108C108C108C1103A102AF8D277
:1023100001E008C1121F042AFBD20D4601E005F8B6
:10232000016B171EA2F10102F9D1F0BD2DE9F041B8
:1023300006460F46304600F045F80546E868FFF7C8
:102340001BFF044614B90020BDE8F081002120469F
:10235000EA68FFF7C7FF267200206072082239463C
:10236000204600F08AF9FDF751FF804604F10C0188
:10237000281DFFF7B9FE4046FDF74CFF2046E3E776
:1023800070B5044600202072FDF740FF054604F1B9
:102390000C00FFF7D5FE2846FDF73CFF2046FFF76F
:1023A00075FD70BD70B5044600202072FDF72EFF4C
:1023B000054604F10C00FFF7C3FE2846FDF72AFF8F
:1023C00070BD0000024600210AE0074800EB011042
:1023D0000078904203D1044800EB01107047491C7B
:1023E0000429F2DB0020F9E75C0000202DE9F0472A
:1023F00004460D46904600262846FFF7E3FF0746B1
:10240000FFF712FD7E6802E0A6F10C003668381D69
:102410008642F9D1FFF718FD45F0800020720822AE
:102420004146204600F029F9FDF7F0FE814604F10F
:102430000C01381DFFF758FE4846FDF7EBFEBDE8DE
:10244000F0870146087A00F0800008B1012070474B
:102450000020FCE710B5FFF7D5FD00F07BFBFFF790
:10246000E1FD10BD2DE9F041FDF7D0FE074618480B
:10247000008838BB17480068FFF754FB461E164813
:1024800050F83600A0F1140414480068844218D0B3
:1024900013490E701148056804601248007850B95D
:1024A00004F11C0105F11C00FDF7B7FE3846FDF7ED
:1024B000B1FEBDE8F08104F11C0105F11C00FDF73F
:1024C000ACFE00BF3846FDF7A5FE00BFF1E70000F7
:1024D000A00000209C00002088030020A400002011
:1024E000A80000204000002070B50446FDF78EFED5
:1024F000054614F8340F20F00F0040F00100207062
:102500006278343C0A4B03EBC20004F114014268C8
:10251000116042684A604160086000BF0549A06BD5
:1025200009680843034908602846FDF773FE70BD3B
:10253000880300209C00002070B50446FDF766FE6D
:10254000054604F11400D0E900215160D0E90012E1
:1025500011604060006000BF94F83510094A02EB3A
:10256000C1000168814201D1012100E0002129B1AF
:102570000548A16B00688843034908602846FDF7B9
:1025800049FE70BD880300209C0000202DE9F04129
:1025900004460D4616461F462A4602212046FFF7EE
:1025A00025FF2046FFF78FFDA68367720020BDE858
:1025B000F08170B504460025FDF728FE064604F1BB
:1025C0001400FFF7ADFD28B904F11400FFF73AFD40
:1025D00001250EE0A08B4FF6FF71884203DAA08B35
:1025E000401CA08305E03046FDF714FE6FF00200AA
:1025F00070BD3046FDF70EFE012D01D1FFF732FF11
:102600000020F5E773B50546FDF700FE0646A88BEA
:10261000002806DDA88B401EA8833046FDF7FAFD92
:1026200028E0019828B93046FDF7F4FD6FF001006D
:102630007CBD00F0CBF90446002020636A7A214675
:1026400005F11400FFF708FD0198002809DD01AA33
:10265000002104F1440000F0E7FA04F1440000F026
:102660003FFB3046FDF7D6FDFFF7FCFE206B08B1BF
:10267000206BDDE70020DBE7704770B50346A2B1B1
:1026800018460C4600BF14F8016B00F8016B3EB908
:1026900002E0002500F8015B551E2A1EF9D102E078
:1026A000551E2A1EEFD100BF00BF184670BD0000A6
:1026B0002DE9F04107468846F81C20F0030528F074
:1026C0000306182E08D9A6F11800A84204D3701BDF
:1026D00018381C49086001E0BDE8F0811A4805601F
:1026E00004684FF4F5502080164800680C30606094
:1026F0000020A0606080144960680968084413499C
:1027000008604FF4F5500968088001200F490968F6
:1027100048800C4800680C300C490968486009483A
:1027200000680C300949096888600023012208A16B
:102730000948FFF72BFF044800680849086000BFFC
:10274000CAE700005000002044000020480000209C
:102750006865617000000000680300204C000020E4
:1027600010B500200B490880002405E00A4901EB60
:10277000C400FFF7B3FC641C202CF7DB1F200749C3
:102780000870002006490860064908600648FFF7FF
:10279000A5FC10BDA000002088030020A800002098
:1027A000A40000209C000020AC00002070B5084868
:1027B0000068FFF7B7F9451E064850F83500A0F14C
:1027C00014040548046004F11C00FDF754FD70BDBD
:1027D0009C00002088030020A400002010B50024E5
:1027E00005E0044901EBC400FFF77BFC641C002CEE
:1027F000F7D010BDB400002070472DE9FF5F0646FA
:102800000F4690461D46DDE90EAB31460120FFF72D
:102810008DFD8146B9F1000F03D1002004B0BDE861
:10282000F09F2846FFF7A8FC044624B94846FFF766
:10283000A7FD0020F2E743463A46314648468DE878
:10284000300CFFF795F94846E8E7000070B51348EB
:102850000468FDF7DBFC05462046FFF7FCF920463F
:10286000FFF76AFE042084F8340004F1440000F00D
:102870000CFA2046FFF7E5FD012803D12046FFF7BB
:1028800091FD04E004F114010548FFF734FCFFF763
:10289000E9FD2846FDF7BEFC70BD0000A400002045
:1028A000AC00002001E000F001F8FCE770B528E082
:1028B000FDF7ACFC054600BF13480168814201D01A
:1028C000012100E0002119B92846FDF7A3FC19E019
:1028D0000D480068A0F1140404F11400D0E90021AF
:1028E0005160D0E9001211604060006000BFA06A32
:1028F000FFF7CCFA2046FFF743FD2846FDF78AFC98
:1029000000BFD5E700BF70BDAC0000201FB5202080
:102910001F21C200074BCDE90032CDE90210002390
:10292000054A06A1074800F00FF8064800F076F8BF
:102930001FBD000068020020A52800087469646CAF
:1029400065000000F00100202DE9FF5F05460C4600
:1029500016461F46DDE910ABDDE90E89224601214E
:102960002846FFF743FD3B463246214628468DE880
:10297000000FFFF7FDF804B0BDE8F09F70B5044606
:10298000204600F0C5F80546284600F025F870BD41
:1029900070B5044694F8340000F00F00022802D00D
:1029A0004FF0FF3070BDFDF731FC054604F1140017
:1029B000FFF7CFFB04F1440000F008FA2846FDF7CA
:1029C00029FC2046FFF790FD0020EBE70148006856
:1029D00070470000A400002031B5FDF717FC054644
:1029E0000D480468204600F02FF86A46002104F1E3
:1029F000440000F019F904F1440000F071F9284690
:102A0000FDF708FCFFF72EFD206B801C08B90020A5
:102A10002063002038BD0000A400002010B504464B
:102A20003434A078607061780120884060600220B2
:102A300004F834092046FFF7ABFFFFF7C7FF08B1E2
:102A4000FFF710FD002010BD70B5044694F8340067
:102A500000F00F00012802D04FF0FF3070BDFDF7ED
:102A6000D5FB05462046FFF767FD94F8340020F0BB
:102A70000F0040F0020084F8340004F1440000F03C
:102A8000A5F92846FDF7C6FB0020E7E770B5044628
:102A900025466FF00100286305F11400FFF759FB8C
:102AA0002846FFF721FDFFF7DDFC70BD70B5FDF78F
:102AB000ADFB05461448046894F8340000F00F009C
:102AC00001281CD1D4E90510814218D004F114006A
:102AD000FFF73FFB94F835200C4B03EBC20004F1E9
:102AE00014014268116042684A604160086000BF9A
:102AF0002846FDF78FFBFFF7B5FC002070BD284688
:102B0000FDF788FB0020F9E7A400002088030020DF
:102B10000146002902DA4FF0FF3014E04FF47A72D8
:102B200091FBF2F24FF47A7302FB03F01A4691FB29
:102B3000F2F302FB13124FF47A735A4302F2E732B4
:102B400092FBF3F2104470470148006870470000A0
:102B50003C00002010B50A480068401C0849086085
:102B6000FFF734FF0446206C401E2064206C18B927
:102B7000E06B2064FFF79AFF00F004F810BD00003E
:102B80003C0000207CB56846FFF7ABFAFFF7DCFF9E
:102B90000546FDF73BFB06463AE022480068A0F1F7
:102BA0001404A06A281A6FF0004188422ED22046F1
:102BB000FFF741F8607A00F0020018B9607A20F05F
:102BC0000100607204F114016846FFF79BFAD4E932
:102BD00007108847FFF7B8FF05466846FFF7A8FAD1
:102BE00000B115E004F11400FFF7BCFA607A00F0C0
:102BF000020060B1607A00F0010040B1607A20F01C
:102C000001006072204600F06BF800E005E000BFB4
:102C10000448FFF78DFA0028BFD000BF3046FDF70B
:102C2000F9FA7CBDB40000202DE9F04104460E46BF
:102C30001546FDF7EBFA0746052E1ED2DFE806F033
:102C40000603090E1300606A286017E028686062B6
:102C500014E0607A20F0020060720FE0607A40F0C9
:102C6000020060720AE0607A00F0010010B10120F9
:102C7000286001E00020286000E000BF00BF384667
:102C8000FDF7C8FA0020BDE8F08170B50446FDF7F5
:102C9000BDFA05462046FEF7CEFF607A20F001001F
:102CA00060722846FDF7B6FA2046FFF77BFB00204E
:102CB00070BD2DE9F84307460C4615461E46DDE972
:102CC000088922460A213846FFF790FB43463246E0
:102CD00029463846CDF80090FEF78CFFBDE8F88312
:102CE0002DE9F8430546FDF791FA80462846FEF7A0
:102CF000A2FF687A20F001006872FFF725FF696A79
:102D00000844A8622F4F009700242AE019E05DF8DC
:102D100024201168142202EBC402881A826AAB6A6A
:102D2000D21A00D108E0826AAB6AD21A6FF000436F
:102D30009A4200D20CE000BF5DF8240000684DF814
:102D400024005DF8240007EBC40149688842DED105
:102D500000BF2CB15DF824000830611C4DF8210043
:102D6000641C002CD2D018480068401C164908602A
:102D70000846066805F114010098FFF7C3F902241C
:102D800012E006F0030060B9C4F1010305F114027A
:102D900002EBC301C4F101025DF82200FFF7B2F9B2
:102DA00000E003E0B608641C012CEAD900BF687A91
:102DB00040F0010068724046FDF72CFA0020BDE8A3
:102DC000F8830000B4000020BC00002070B5044669
:102DD000607A00F0010010B94FF0FF3070BDFDF7D0
:102DE00015FA05462046FEF726FF607A20F001001E
:102DF00060722846FDF70EFA0020EFE700207047CA
:102E000000207047002070470020704710B5FDF784
:102E1000FDF9FFF77FF8FFF72FFCFFF7DFFCFFF767
:102E20009FFCFEF7CDFFFFF7E7FCFFF76FFDFFF715
:102E3000BDFC002010BD00000A2209490948FEF728
:102E4000A9FA0BE008480078012804D100200649BF
:102E50000870FEF767FB0520FFF790FDF2E7000022
:102E6000C0000020940100200000002010B504469E
:102E70000748084908600846446000218160C16035
:102E8000016181610C214161FEF7F0F910BD000084
:102E9000003801409401002021F00042A2F160526C
:102EA000B2F5801F01F0004328BFD2F17F6C0BD92F
:102EB0005FEA001C43EAC20242EB507018BF704741
:102EC00028BF20F001007047B2F5801FBCBF184634
:102ED00070474FEA410C1CF5001F02D2084600F073
:102EE00032BC70B500F05CF900000089FFF7F6BF56
:102EF0004FF00040A0F580007047000010B591EA47
:102F0000030F48BF83F0004300F1A681841A71EBE0
:102F1000030C05D2121943EB0C03001B61EB0C01EF
:102F2000DFF824E14FEA1154A4EB135C1EEA430FCF
:102F300018BF9EEA445F73D023EA0E03DCF1200E33
:102F400021EA045143F4801332D322FA0CFE10EB31
:102F50000E0023FA0CFE41EB0E01CCF1200E03FA19
:102F60000EFE10EB0E0051F10001B1F5801FCCF107
:102F7000200E32D201EB045112FA0EF2BDE81040DD
:102F800058BF7047401C38BF5FEA420218BF704705
:102F9000002814BF20F0010041F100014FEA410375
:102FA00013F5001F38BF7047A1F1C04100F046B9CA
:102FB000012A43EB0302ACF1200CDCF11F0E32BFFF
:102FC0004FF0000E23FA0CF310EB030041EB045119
:102FD000B4EB115FD0D0A1EB045101F58011490889
:102FE0005FEA300001EB04510ED350F1000038BF0E
:102FF00012FA0EFE08D1BDE81040C9E7401C38BFE8
:103000005FEA4202CAD1C3E7BDE810404FEA41037C
:1030100013F5001F38BF7047A1F1C04100F00EB991
:103020009EEA445F08D011EA5E0FBDE8104004BF7D
:1030300001F0004100207047BDE8104070B500F07D
:10304000AFF800BF64FBBE3E0000E0FFDFF848C100
:1030500070B51CEA111E1EBF1CEA13159EEA0C0F68
:1030600095EA0C0F00F06F8081EA030423EA4C1309
:103070004EEAD47E21EA4C1141F4801143F48013CE
:10308000AE44A1FB024CA0FB0365AEF17F7E361976
:1030900055EB0C05A1FB034C4CF10003A0FB021CFB
:1030A00016EB0C06654153F10003094218BF46F0C8
:1030B000010613F4007F0BD14FEA03314FEA0530CC
:1030C000340341EA155140EA16506FF003020AE05A
:1030D0004FEAC3214FEAC520F40241EA555140EAC4
:1030E00056506FF0020202EB2E4201EB025585EAC8
:1030F000CE710AD05FEA440C18BF24F0004450F1AE
:10310000000041F1000120EAD47040F2FE7C6245EB
:1031100000D270BDA84214BF4FF080444FF040442D
:10312000002E08BF0024BEF1806FA8BFA1F1C041EE
:10313000BDE8704080F282804FF0000001F1C04194
:1031400001F0004170479EEA0C0F0CEA131518BFFE
:1031500095EA0C0F06D04FF0000081EA030E0EF046
:10316000004170BD00F01CF88900013E00F007B876
:1031700000F009B84FEA430C5FEA5C5C08D081EAD2
:10318000030100F05BB84FEA410C5FEA5C5CF6D1EA
:103190004FF00000014970470000FF070000F87F72
:1031A0000EF1020E2EF0030E5EF8046B364205D4CB
:1031B000012A43EB030515F5001F12D8012841EB46
:1031C000010C1CF5001F0CD80ED14FEAD17C15F56F
:1031D000001F0CEB4C0C0CF1020C08BF4CEBD37C29
:1031E00004E04FF0080C01E04FEAD37C0CEB4C05F7
:1031F00026FA05F606F00706B6F1040C06D20EEB29
:10320000860CBDE870404CF0010C6047DFE80CF024
:10321000090B02024FF000414FF00000A1F5002120
:1032200070BD19461046012851EB010418BFD4F5B2
:10323000001484BF002001F0004170BD0808A0F513
:1032400000114FEA3101704710B591EA030F48BFF2
:1032500083F000433FF55AAE841A71EB030C07D29A
:1032600012198CF0004C43EB0C03001B61EB0C01BA
:10327000DFF8A4E14FEA1154A4EB135C1EEA430FFC
:1032800018BF9EEA445F00F0B08023EA6E0352420A
:1032900021EA0451C3EB6E0338BF5B1EDCF1200E44
:1032A00025D322FA0CFE10EB0E0043FA0CFE41EB84
:1032B0000E01CCF1200E03FA0EFE10EB0E0051F1C0
:1032C0000001CCF1200E29D412FA0EF201EB0451C8
:1032D000BDE8104058BF7047401C1CBFB2F1004F02
:1032E000704700280CBF491C20F00100704712EB0A
:1032F000020E43EB030218BF4FF0010E4EEA4202EA
:10330000ACF1200CDCF11E0E54D943FA0CFE10EB8C
:103310000E0051F1FF31CCF11E0ED5D50EF1010E8C
:1033200012FA0EFE404141EB010101EB445C5FEA01
:103330005C5C10D910EBDE7001EB045138BFBEF1BC
:10334000004FBDE8104018BF704700280CBF491C53
:1033500020F00100704730D24FEAD42C11F5001153
:1033600024F400641BD0B1FA81F20B3AA41AA41E13
:10337000D2F12003914030FA03F31943904001EB5E
:10338000CC71002C01EB0451BDE81040A8BF704780
:1033900001F1C0414FF0000001F000417047B0FA68
:1033A00080F310FA03F100D110BDE41A173C480570
:1033B000C90AE4E701EB045110BD491001EB0451C7
:1033C000BDE810404FEA300002E04FF000017047C6
:1033D0004A0008BF0042F8D0B2F5001F28BF70476E
:1033E00001F000414FF0000070479EEA445F07D0B3
:1033F00011EA5E0FBDE8104004BF002100207047B5
:10340000BDE8104070B5FFF7CBFE00BF40DFF63ED1
:1034100083F00041104670470000E0FF43004FEA90
:10342000D30C4FEA3C0C43401FBF40070CF16051E6
:1034300013F0FE4F70471CF0006F03D100200CF01A
:10344000004170470CF0004343EA507010B540EA69
:10345000CC0000F032F900BF000000924FEA0001FA
:10346000FFF7ECBE4FF000414FF00000A1F5002146
:103470007047000090EA010F48BF81F0004100F161
:10348000A081421A3CBF801A89184FEAD0524FF0EF
:103490007F4C1CEA410FA2EBD15318BF9CEA026F8C
:1034A00000F03B804FF0004C4CEA00204CEA012138
:1034B00021FA03FC10EB0C0C1ED202F1FF325FEA82
:1034C0001C2040EBC25038BF70471CF07F0F4FEA02
:1034D000400C18BFBCF17F4F38BF7047C3F12003C9
:1034E000994008BF20F00100BCF17F4F38BF704702
:1034F000A0F1C04000F027B94FEA3C00000A40EBC1
:10350000C25028BF1CF0FF0F4FEA400CE6D018BF96
:10351000BCF17F4F38BF7047EAE79CEA026F05D0E5
:1035200010EA5C0F08BF00F00040704710B500F0D3
:10353000C4F800BF64FBBE3E401058BFC0F140401D
:10354000491058BFC1F140418142EFF300807047FC
:1035500050EA010C00F113801CF5000F58BFBCF5B8
:10356000000F01D48842704707D710F5000F58BFED
:1035700011F5000F15D488427047894270471CF539
:10358000000F04D5BCF5000FF7D5814270474FF00E
:10359000807C1CEB400F38BF1CEB410F01D28142F5
:1035A000704710B500F089F8922449004FF00050A0
:1035B0004FF08051FFF7C0BF4FF47F0C1CEAD012D0
:1035C0001EBF1CEAD11392EA0C0F93EA0C0F00F015
:1035D000478090EA010F48BF42F480724FF0004CE0
:1035E0004CEA00204CEA012102EB0302A0FB01138C
:1035F000A2F50002002918BF43F001035B0028BFB9
:103600004FEA330342EB22425FEA132C4CEBC250E9
:103610002EBFBCEB436FB2F57C0F70474FEA036CD3
:10362000BCF1004F08BF20F00100B2F57C0F38BF9D
:1036300070470BD582F0FF0212F5803FC8BF70477C
:1036400000F1C040D8BF00F00040704700F5000C0A
:103650005FEA4C0C48BF7047B0F1C04000F073B84F
:1036600090EA010F0CEAD11348BF42F48072624520
:1036700038BF634504D280EA010000F00040704783
:1036800010B500F01AF800BF8900013E00F007B83D
:1036900000F009B85FEA410C5FEA1C6C08D080EAD0
:1036A000010000F050B85FEA400C5FEA1C6CF6D1F4
:1036B0004FF00040A0F5800070470EF1020E2EF092
:1036C000030E5EF8044B244204D44FEA4102B2F1E7
:1036D0007F4F11D84FEA4003B3F17F4F0CD80ED182
:1036E0004FEAD07CB2F17F4F0CEB4C0C0CF1020C8A
:1036F00008BF4CEBD17C04E04FF0080C01E04FEA2E
:10370000D17C0CEB4C0324FA03F404F00704B4F16D
:10371000040C06D20EEB840CBDE810404CF0010CFA
:103720006047DFE80CF0070802024FF00040A0F508
:10373000800010BD0846420018BFD2F1807288BFD9
:1037400000F0004010BDFF2141EAD050C005704795
:1037500051EA000C00F113801CF5000F58BFBCF5B6
:10376000000F01D48142704707D711F5000F58BFF1
:1037700010F5000F15D481427047894270471CF53F
:10378000000F04D5BCF5000FF7D5884270474FF005
:10379000807C1CEB410F38BF1CEB400F01D28842EC
:1037A000704780EA010081EA000180EA0100FFF72A
:1037B000F8BE000090EA010F48BF81F000413FF5DC
:1037C00060AE421A04D882F00042A0EB020011441D
:1037D0004FEAD0524FF07F4C1CEA410FA2EBD1537D
:1037E00018BF9CEA026F4AD04FF0004C4CEA002010
:1037F0004CEA012121FA03FCB0EB0C0C0FD412F0BF
:10380000FE0F36D05FEA4C001DD5001240EBC250CF
:1038100038BF70471CF03F0F18BF70470BE0A2F194
:1038200001025FEA1C2040EBC25038BF70471CF019
:103830007F0F18BF7047C3F12003994014BF401E8B
:1038400020F00100704780084FEA122308BF70473C
:10385000B0FA80FCA2EB0C02CCF1280C60FA0CF060
:1038600093EA122F04BF00EBC25070474FEAC370B7
:103870007047130A5FEADC1008BF7047F6E79CEA5E
:10388000026F04D010EA5C0F08BF0020704710B52B
:10389000FFF713FF40DFF63E81F000407047000065
:1038A00000000000000001020304060708090000F0
:1038B00000000102030400000100020001000300F7
:1038C00001000200010004000100020001000300E9
:1038D00001000200010005000100020001000300D8
:1038E00001000200010004000100020001000300C9
:1038F00001000200010006000100020001000300B7
:1039000001000200010004000100020001000300A8
:103910000100020001000500010002000100030097
:103920000100020001000400010002000100030088
:103930000100020001000700010002000100030075
:103940000100020001000400010002000100030068
:103950000100020001000500010002000100030057
:103960000100020001000400010002000100030048
:103970000100020001000600010002000100030036
:103980000100020001000400010002000100030028
:103990000100020001000500010002000100030017
:1039A0000100020001000400010002000100030008
:1039B00001000200010030313233343536373839F6
:1039C00061626364656600303132333435363738CE
:1039D0003941424344454600092E0008012E0008A3
:1039E000FD2D0008052E0008083A00080000002000
:1039F000C00000006C010008C83A0008C0000020A8
:103A00002846000088010008000000000024F4009F
:103A100000000000100000000100000033330B41E3
:103A2000EC51383E3333CB410000C0400AD7233D30
:103A30000000AF4300000000000000000000000094
:103A40000000000000000000000000000000000076
:103A50000000000000000000000000000000000066
:103A60000000000001000000600000206000002055
:103A700078000000020000007000002070000020AC
:103A800020000000050000008000002080000020D1
:103A9000300000000A00000090000020900000208C
:103AA0002C000000000000000000000000000000EA
:103AB0000000000000000000000000000000000006
:083AC0000000000000000000FE
:0400000508000131BD
:00000001FF
